:03000000020330C8
:0C033000787FE4F6D8FD75812002037789
:0A000E003F065B4F666D7D077F6FB4
:0804ED00C100C103C102C101FD
:0D04DF007F647E00EF1F70011EEF4E70F76E
:0104EC0022ED
:1001C100E50975F00A8490000E93F580C2A7120428
:1001D100DFD2A7E50975F00A84E5F093F580C2A6A0
:1001E1001204DFD2A63001057580808003E4F5801A
:1001F100C2A61204DFD2A6C287E50875F00A849070
:10020100000E93F580C2A51204DFD2A5E50875F0B2
:100211000A84E5F093F580C2A41204DFD2A420027F
:1002210006AE0CAF0D8004AE0EAF0F7C007D6412E4
:1002310003BC740E2FF58274003EF583E493F580C0
:10024100C2A31204DFD2A3200206AE0CAF0D8004BC
:10025100AE0EAF0F7C007D641203BC7E007F0ACF1F
:10026100CDCFCECCCE1203BC740E2FF58274003EDE
:10027100F583E493F580C2A21204DFD2A220020624
:10028100AE0CAF0D8004AE0EAF0F7C007D0A1203E1
:10029100BC740E2DF58274003CF583E493F580C2A5
:1002A100A11204DFD2A1300206AE0CAF0D8004AE64
:1002B1000EAF0F7C007D641203BC740E2FF58274A7
:1002C100003EF583E493F580C2A01204DFD2A03092
:1002D1000206AE0CAF0D8004AE0EAF0F7C007D6444
:1002E1001203BC7E007F0ACFCDCFCECCCE1203BC91
:1002F100740E2FF58274003EF583E493F580C2B746
:100301001204DFD2B7300206AE0CAF0D8004AE0E80
:10031100AF0F7C007D0A1203BC740E2DF5827400B0
:0F0321003CF583E493F580C2B61204DFD2B62216
:10001E003000030200A82090171201C1E509C39415
:10002E00635004050980037509631201C13090FA0B
:10003E002091171201C1E509D394004004150980DF
:10004E0003E4F5091201C13091FA2093171201C190
:10005E00E508C3943B50040508800375083B120164
:10006E00C13093FA2094171201C1E508D3940040D1
:10007E000415088003E4F5081201C13094FA309299
:10008E00030201C01201C1C28ED297B20275090FCE
:10009E00E4F5081201C13092FA222090441201C1F7
:1000AE0020021DC3E50D94E7E50C9403500A050DDF
:1000BE00E50D7027050C8023750C03750DE7801B6D
:1000CE00C3E50F94E7E50E9403500A050FE50F7094
:1000DE000A050E8006750E03750FE71201C13090EA
:1000EE00FA2091421201C120021CD3E50D9400E5C5
:1000FE000C9400400AE50D150D7025150C8021E4B9
:10010E00F50CF50D801AD3E50F9400E50E94004022
:10011E000AE50F150F7009150E8005E4F50EF50FA3
:10012E001201C13091FA2093441201C130021DC355
:10013E00E50D94E7E50C9403500A050DE50D7027C7
:10014E00050C8023750C03750DE7801BC3E50F941A
:10015E00E7E50E9403500A050FE50F700A050E80B1
:10016E0006750E03750FE71201C13093FA20944203
:10017E001201C130021CD3E50D9400E50C94004031
:10018E000AE50D150D7025150C8021E4F50CF50D05
:10019E00801AD3E50F9400E50E9400400AE50F1582
:1001AE000F7009150E8005E4F50EF50F1201C13022
:0301BE0094FA228E
:10045300758911758AB0758C3C758BB0758D3C753B
:10046300090FE4F508D2AFD2A9D2ABC28CC28ED2A7
:10047300A8D288D28AD2B8C2B97590FF75B0FF12DC
:07048300001E1201C180F808
:0300030002048A6A
:10048A00C0E0C0D075D000C006C0071204DFC2A801
:10049A00D297C28E300302C203200006D200D28C49
:1004AA008004C200C28CD2A8D007D006D0D0D0E037
:0104BA00320F
:03000B00020411DB
:10041100C0E0C0D0758AB0758C3CD28C050AE50A63
:10042100B40A02C201E50A64147022F50AD201E598
:10043100087018E509D39400400775083B15098039
:100441000CD203C200C28CD28E80021508D0D0D04B
:02045100E03297
:03001B000204BB21
:1004BB00C0E0C0D0758BB0758D3CD28E050BE50BB3
:1004CB00B40A02C297E50BB41405750B00D297D092
:0404DB00D0D0E0326B
:10033C00020453E493A3F8E493A34003F68001F280
:10034C0008DFF48029E493A3F85407240CC8C333C2
:10035C00C4540F4420C8834004F456800146F6DF91
:10036C00E4800B01020408102040809004EDE47E30
:10037C00019360BCA3FF543F30E509541FFEE49386
:10038C00A360010ECF54C025E060A840B8E493A34D
:10039C00FAE493A3F8E493A3C8C582C8CAC583CA78
:1003AC00F0A3C8C582C8CAC583CADFE9DEE780BE30
:0104F5000006
:1003BC00BC000BBE0029EF8DF084FFADF022E4CC25
:1003CC00F875F008EF2FFFEE33FEEC33FCEE9DECEE
:1003DC00984005FCEE9DFE0FD5F0E9E4CEFD22ED34
:1003EC00F8F5F0EE8420D21CFEADF075F008EF2F7E
:1003FC00FFED33FD4007985006D5F0F222C398FD6F
:05040C000FD5F0EA220B
:00000001FF
